{
  "contractName": "TomateSales",
  "abi": [
    {
      "inputs": [
        {
          "internalType": "contract TomateToken",
          "name": "_addressContract",
          "type": "address"
        },
        {
          "internalType": "uint256",
          "name": "_initialPrice",
          "type": "uint256"
        }
      ],
      "stateMutability": "nonpayable",
      "type": "constructor"
    },
    {
      "anonymous": false,
      "inputs": [
        {
          "indexed": true,
          "internalType": "address",
          "name": "previousOwner",
          "type": "address"
        },
        {
          "indexed": true,
          "internalType": "address",
          "name": "newOwner",
          "type": "address"
        }
      ],
      "name": "OwnershipTransferred",
      "type": "event"
    },
    {
      "inputs": [],
      "name": "initialPrice",
      "outputs": [
        {
          "internalType": "uint256",
          "name": "",
          "type": "uint256"
        }
      ],
      "stateMutability": "view",
      "type": "function",
      "constant": true
    },
    {
      "inputs": [],
      "name": "owner",
      "outputs": [
        {
          "internalType": "address",
          "name": "",
          "type": "address"
        }
      ],
      "stateMutability": "view",
      "type": "function",
      "constant": true
    },
    {
      "inputs": [],
      "name": "renounceOwnership",
      "outputs": [],
      "stateMutability": "nonpayable",
      "type": "function"
    },
    {
      "inputs": [],
      "name": "soldTokens",
      "outputs": [
        {
          "internalType": "uint256",
          "name": "",
          "type": "uint256"
        }
      ],
      "stateMutability": "view",
      "type": "function",
      "constant": true
    },
    {
      "inputs": [],
      "name": "tokenContract",
      "outputs": [
        {
          "internalType": "contract TomateToken",
          "name": "",
          "type": "address"
        }
      ],
      "stateMutability": "view",
      "type": "function",
      "constant": true
    },
    {
      "inputs": [
        {
          "internalType": "address",
          "name": "newOwner",
          "type": "address"
        }
      ],
      "name": "transferOwnership",
      "outputs": [],
      "stateMutability": "nonpayable",
      "type": "function"
    }
  ],
  "bytecode": "0x608060405234801561001057600080fd5b506040516108bc3803806108bc83398181016040528101906100329190610214565b61004e61004361009d60201b60201c565b6100a560201b60201c565b81600160006101000a81548173ffffffffffffffffffffffffffffffffffffffff021916908373ffffffffffffffffffffffffffffffffffffffff160217905550806002819055505050610254565b600033905090565b60008060009054906101000a900473ffffffffffffffffffffffffffffffffffffffff169050816000806101000a81548173ffffffffffffffffffffffffffffffffffffffff021916908373ffffffffffffffffffffffffffffffffffffffff1602179055508173ffffffffffffffffffffffffffffffffffffffff168173ffffffffffffffffffffffffffffffffffffffff167f8be0079c531659141344cd1fd0a4f28419497f9722a3daafe3b4186f6b6457e060405160405180910390a35050565b600080fd5b600073ffffffffffffffffffffffffffffffffffffffff82169050919050565b60006101998261016e565b9050919050565b60006101ab8261018e565b9050919050565b6101bb816101a0565b81146101c657600080fd5b50565b6000815190506101d8816101b2565b92915050565b6000819050919050565b6101f1816101de565b81146101fc57600080fd5b50565b60008151905061020e816101e8565b92915050565b6000806040838503121561022b5761022a610169565b5b6000610239858286016101c9565b925050602061024a858286016101ff565b9150509250929050565b610659806102636000396000f3fe608060405234801561001057600080fd5b50600436106100625760003560e01c80631d0806ae1461006757806355a373d6146100855780635ed9ebfc146100a3578063715018a6146100c15780638da5cb5b146100cb578063f2fde38b146100e9575b600080fd5b61006f610105565b60405161007c91906103c5565b60405180910390f35b61008d61010b565b60405161009a919061045f565b60405180910390f35b6100ab610131565b6040516100b891906103c5565b60405180910390f35b6100c9610137565b005b6100d36101bf565b6040516100e0919061049b565b60405180910390f35b61010360048036038101906100fe91906104e7565b6101e8565b005b60025481565b600160009054906101000a900473ffffffffffffffffffffffffffffffffffffffff1681565b60035481565b61013f6102e0565b73ffffffffffffffffffffffffffffffffffffffff1661015d6101bf565b73ffffffffffffffffffffffffffffffffffffffff16146101b3576040517f08c379a00000000000000000000000000000000000000000000000000000000081526004016101aa90610571565b60405180910390fd5b6101bd60006102e8565b565b60008060009054906101000a900473ffffffffffffffffffffffffffffffffffffffff16905090565b6101f06102e0565b73ffffffffffffffffffffffffffffffffffffffff1661020e6101bf565b73ffffffffffffffffffffffffffffffffffffffff1614610264576040517f08c379a000000000000000000000000000000000000000000000000000000000815260040161025b90610571565b60405180910390fd5b600073ffffffffffffffffffffffffffffffffffffffff168173ffffffffffffffffffffffffffffffffffffffff1614156102d4576040517f08c379a00000000000000000000000000000000000000000000000000000000081526004016102cb90610603565b60405180910390fd5b6102dd816102e8565b50565b600033905090565b60008060009054906101000a900473ffffffffffffffffffffffffffffffffffffffff169050816000806101000a81548173ffffffffffffffffffffffffffffffffffffffff021916908373ffffffffffffffffffffffffffffffffffffffff1602179055508173ffffffffffffffffffffffffffffffffffffffff168173ffffffffffffffffffffffffffffffffffffffff167f8be0079c531659141344cd1fd0a4f28419497f9722a3daafe3b4186f6b6457e060405160405180910390a35050565b6000819050919050565b6103bf816103ac565b82525050565b60006020820190506103da60008301846103b6565b92915050565b600073ffffffffffffffffffffffffffffffffffffffff82169050919050565b6000819050919050565b600061042561042061041b846103e0565b610400565b6103e0565b9050919050565b60006104378261040a565b9050919050565b60006104498261042c565b9050919050565b6104598161043e565b82525050565b60006020820190506104746000830184610450565b92915050565b6000610485826103e0565b9050919050565b6104958161047a565b82525050565b60006020820190506104b0600083018461048c565b92915050565b600080fd5b6104c48161047a565b81146104cf57600080fd5b50565b6000813590506104e1816104bb565b92915050565b6000602082840312156104fd576104fc6104b6565b5b600061050b848285016104d2565b91505092915050565b600082825260208201905092915050565b7f4f776e61626c653a2063616c6c6572206973206e6f7420746865206f776e6572600082015250565b600061055b602083610514565b915061056682610525565b602082019050919050565b6000602082019050818103600083015261058a8161054e565b9050919050565b7f4f776e61626c653a206e6577206f776e657220697320746865207a65726f206160008201527f6464726573730000000000000000000000000000000000000000000000000000602082015250565b60006105ed602683610514565b91506105f882610591565b604082019050919050565b6000602082019050818103600083015261061c816105e0565b905091905056fea264697066735822122087f0b7e8994dd96079eb4f1a0d75fdb6abe832e46472211fbacc8ff1d68b4a0264736f6c634300080b0033",
  "immutableReferences": {},
  "source": "// SPDX-License-Identifier: GPL-3.0\r\npragma solidity ^0.8.0;\r\n\r\nimport \"@openzeppelin/contracts/access/Ownable.sol\";\r\nimport \"./tomateToken.sol\";\r\n\r\ncontract TomateSales is Ownable {\r\n\r\n    TomateToken public tokenContract;\r\n    uint256 public initialPrice;\r\n    uint256 public soldTokens;\r\n\r\n    constructor(TomateToken _addressContract, uint256 _initialPrice){\r\n        tokenContract = _addressContract;\r\n        initialPrice = _initialPrice;\r\n    }\r\n    \r\n\r\n\r\n}",
  "sourcePath": "C:\\Projetos Blockchain\\GetMoreKnow\\contracts\\TomateSales.sol",
  "compiler": {
    "name": "solc",
    "version": "0.8.11+commit.d7f03943.Emscripten.clang"
  },
  "schemaVersion": "3.4.4",
  "updatedAt": "2022-02-09T11:14:05.864Z",
  "networkType": "ethereum",
  "devdoc": {
    "kind": "dev",
    "methods": {
      "owner()": {
        "details": "Returns the address of the current owner."
      },
      "renounceOwnership()": {
        "details": "Leaves the contract without owner. It will not be possible to call `onlyOwner` functions anymore. Can only be called by the current owner. NOTE: Renouncing ownership will leave the contract without an owner, thereby removing any functionality that is only available to the owner."
      },
      "transferOwnership(address)": {
        "details": "Transfers ownership of the contract to a new account (`newOwner`). Can only be called by the current owner."
      }
    },
    "version": 1
  },
  "userdoc": {
    "kind": "user",
    "methods": {},
    "version": 1
  }
}