{
  "contractName": "DappTokenSale",
  "abi": [
    {
      "inputs": [
        {
          "internalType": "contract DappToken",
          "name": "_tokenContract",
          "type": "address"
        },
        {
          "internalType": "uint256",
          "name": "_priceToken",
          "type": "uint256"
        }
      ],
      "stateMutability": "nonpayable",
      "type": "constructor"
    },
    {
      "inputs": [],
      "name": "priceToken",
      "outputs": [
        {
          "internalType": "uint256",
          "name": "",
          "type": "uint256"
        }
      ],
      "stateMutability": "view",
      "type": "function",
      "constant": true
    },
    {
      "inputs": [],
      "name": "tokenContract",
      "outputs": [
        {
          "internalType": "contract DappToken",
          "name": "",
          "type": "address"
        }
      ],
      "stateMutability": "view",
      "type": "function",
      "constant": true
    },
    {
      "inputs": [],
      "name": "tokenSold",
      "outputs": [
        {
          "internalType": "uint256",
          "name": "",
          "type": "uint256"
        }
      ],
      "stateMutability": "view",
      "type": "function",
      "constant": true
    },
    {
      "inputs": [
        {
          "internalType": "uint256",
          "name": "_amountOfTokens",
          "type": "uint256"
        }
      ],
      "name": "buyTokens",
      "outputs": [],
      "stateMutability": "payable",
      "type": "function",
      "payable": true
    }
  ],
  "bytecode": "0x608060405234801561001057600080fd5b506040516105d93803806105d98339818101604052810190610032919061016c565b336000806101000a81548173ffffffffffffffffffffffffffffffffffffffff021916908373ffffffffffffffffffffffffffffffffffffffff16021790555081600160006101000a81548173ffffffffffffffffffffffffffffffffffffffff021916908373ffffffffffffffffffffffffffffffffffffffff1602179055508060028190555050506101ac565b600080fd5b600073ffffffffffffffffffffffffffffffffffffffff82169050919050565b60006100f1826100c6565b9050919050565b6000610103826100e6565b9050919050565b610113816100f8565b811461011e57600080fd5b50565b6000815190506101308161010a565b92915050565b6000819050919050565b61014981610136565b811461015457600080fd5b50565b60008151905061016681610140565b92915050565b60008060408385031215610183576101826100c1565b5b600061019185828601610121565b92505060206101a285828601610157565b9150509250929050565b61041e806101bb6000396000f3fe60806040526004361061003f5760003560e01c80632ff6fe76146100445780633610724e1461006f578063519ee19e1461008b57806355a373d6146100b6575b600080fd5b34801561005057600080fd5b506100596100e1565b6040516100669190610196565b60405180910390f35b610089600480360381019061008491906101e2565b6100e7565b005b34801561009757600080fd5b506100a061011a565b6040516100ad9190610196565b60405180910390f35b3480156100c257600080fd5b506100cb610120565b6040516100d8919061028e565b60405180910390f35b60025481565b6100f381600354610146565b34146100fe57600080fd5b806003600082825461011091906102d8565b9250508190555050565b60035481565b600160009054906101000a900473ffffffffffffffffffffffffffffffffffffffff1681565b60008082148061016e57508282838561015f919061032e565b92508261016c91906103b7565b145b61017757600080fd5b92915050565b6000819050919050565b6101908161017d565b82525050565b60006020820190506101ab6000830184610187565b92915050565b600080fd5b6101bf8161017d565b81146101ca57600080fd5b50565b6000813590506101dc816101b6565b92915050565b6000602082840312156101f8576101f76101b1565b5b6000610206848285016101cd565b91505092915050565b600073ffffffffffffffffffffffffffffffffffffffff82169050919050565b6000819050919050565b600061025461024f61024a8461020f565b61022f565b61020f565b9050919050565b600061026682610239565b9050919050565b60006102788261025b565b9050919050565b6102888161026d565b82525050565b60006020820190506102a3600083018461027f565b92915050565b7f4e487b7100000000000000000000000000000000000000000000000000000000600052601160045260246000fd5b60006102e38261017d565b91506102ee8361017d565b9250827fffffffffffffffffffffffffffffffffffffffffffffffffffffffffffffffff03821115610323576103226102a9565b5b828201905092915050565b60006103398261017d565b91506103448361017d565b9250817fffffffffffffffffffffffffffffffffffffffffffffffffffffffffffffffff048311821515161561037d5761037c6102a9565b5b828202905092915050565b7f4e487b7100000000000000000000000000000000000000000000000000000000600052601260045260246000fd5b60006103c28261017d565b91506103cd8361017d565b9250826103dd576103dc610388565b5b82820490509291505056fea26469706673582212202a5e9c0fcd3460d8aa792286c11f4cdd8e7804544e8a869264dae35532c2cb1864736f6c634300080b0033",
  "immutableReferences": {},
  "source": "pragma solidity >=0.4.22;\r\n\r\nimport './DappToken.sol';\r\n\r\n\r\ncontract DappTokenSale{\r\n    address owner;\r\n    DappToken public tokenContract;\r\n    uint256 public priceToken;\r\n    uint256 public tokenSold;\r\n\r\n    constructor(DappToken _tokenContract, uint256 _priceToken){\r\n        owner = msg.sender;\r\n        tokenContract = _tokenContract;\r\n        priceToken = _priceToken;\r\n    }\r\n\r\n    function mult(uint x, uint y) internal pure returns(uint z){\r\n        require(y == 0 || (z = x * y) / y == x);\r\n    }\r\n\r\n    function buyTokens(uint256 _amountOfTokens) public payable{\r\n        \r\n        require(msg.value == mult(_amountOfTokens, tokenSold));\r\n\r\n        tokenSold += _amountOfTokens;\r\n\r\n    }\r\n}",
  "sourcePath": "C:\\Projetos Blockchain\\token_sale\\contracts\\DappTokenSale.sol",
  "compiler": {
    "name": "solc",
    "version": "0.8.11+commit.d7f03943.Emscripten.clang"
  },
  "schemaVersion": "3.4.4",
  "updatedAt": "2022-02-08T09:59:51.066Z",
  "networkType": "ethereum",
  "devdoc": {
    "kind": "dev",
    "methods": {},
    "version": 1
  },
  "userdoc": {
    "kind": "user",
    "methods": {},
    "version": 1
  }
}